{
  "address": "0x2d40feb7328945c90C4e19c74a519c89bEAb7422",
  "abi": [
    {
      "inputs": [
        {
          "internalType": "uint256",
          "name": "_index",
          "type": "uint256"
        }
      ],
      "name": "endReservation",
      "outputs": [],
      "stateMutability": "nonpayable",
      "type": "function"
    },
    {
      "inputs": [],
      "name": "getReservationFee",
      "outputs": [
        {
          "internalType": "uint256",
          "name": "",
          "type": "uint256"
        }
      ],
      "stateMutability": "view",
      "type": "function"
    },
    {
      "inputs": [],
      "name": "getRoomsLength",
      "outputs": [
        {
          "internalType": "uint256",
          "name": "",
          "type": "uint256"
        }
      ],
      "stateMutability": "view",
      "type": "function"
    },
    {
      "inputs": [
        {
          "internalType": "uint256",
          "name": "_index",
          "type": "uint256"
        },
        {
          "internalType": "uint256",
          "name": "_noOfNights",
          "type": "uint256"
        }
      ],
      "name": "makeReservation",
      "outputs": [],
      "stateMutability": "payable",
      "type": "function"
    },
    {
      "inputs": [
        {
          "internalType": "uint256",
          "name": "_index",
          "type": "uint256"
        }
      ],
      "name": "readRoom",
      "outputs": [
        {
          "components": [
            {
              "internalType": "address payable",
              "name": "owner",
              "type": "address"
            },
            {
              "internalType": "string",
              "name": "name",
              "type": "string"
            },
            {
              "internalType": "string",
              "name": "image",
              "type": "string"
            },
            {
              "internalType": "string",
              "name": "description",
              "type": "string"
            },
            {
              "internalType": "string",
              "name": "location",
              "type": "string"
            },
            {
              "internalType": "uint256",
              "name": "pricePerNight",
              "type": "uint256"
            },
            {
              "internalType": "bool",
              "name": "isReserved",
              "type": "bool"
            },
            {
              "internalType": "address",
              "name": "currentReservedTo",
              "type": "address"
            },
            {
              "internalType": "uint256",
              "name": "currentReservationEnds",
              "type": "uint256"
            },
            {
              "internalType": "uint256",
              "name": "currentBookingFee",
              "type": "uint256"
            }
          ],
          "internalType": "struct Marketplace.Room",
          "name": "",
          "type": "tuple"
        }
      ],
      "stateMutability": "view",
      "type": "function"
    },
    {
      "inputs": [],
      "name": "reservationFee",
      "outputs": [
        {
          "internalType": "uint256",
          "name": "",
          "type": "uint256"
        }
      ],
      "stateMutability": "view",
      "type": "function"
    },
    {
      "inputs": [
        {
          "internalType": "string",
          "name": "_name",
          "type": "string"
        },
        {
          "internalType": "string",
          "name": "_image",
          "type": "string"
        },
        {
          "internalType": "string",
          "name": "_description",
          "type": "string"
        },
        {
          "internalType": "string",
          "name": "_location",
          "type": "string"
        },
        {
          "internalType": "uint256",
          "name": "_pricePerNight",
          "type": "uint256"
        }
      ],
      "name": "writeroom",
      "outputs": [],
      "stateMutability": "nonpayable",
      "type": "function"
    }
  ],
  "transactionHash": "0x53f5f306d726c07a813608961de176975d6e4daa3f205654e33e7629687a566e",
  "args": [],
  "numDeployments": 11,
  "solcInputHash": "27900cb42186736ecc8f45a25513253c",
  "bytecode": "0x6080604052600080557310c892a6ec43a53e45d0b916b4b7d383b1b78c0f600160006101000a81548173ffffffffffffffffffffffffffffffffffffffff021916908373ffffffffffffffffffffffffffffffffffffffff160217905550670de0b6b3a764000060025534801561007557600080fd5b50611e88806100856000396000f3fe6080604052600436106100705760003560e01c8063b37a87eb1161004e578063b37a87eb146100f6578063cdb7162a14610112578063d8b7b3581461013b578063e299fabc1461017857610070565b80632e9397931461007557806371ed7188146100a0578063ad8a51e7146100cb575b600080fd5b34801561008157600080fd5b5061008a6101a1565b6040516100979190610ff5565b60405180910390f35b3480156100ac57600080fd5b506100b56101a7565b6040516100c29190610ff5565b60405180910390f35b3480156100d757600080fd5b506100e06101b1565b6040516100ed9190610ff5565b60405180910390f35b610110600480360381019061010b9190611050565b6101ba565b005b34801561011e57600080fd5b5061013960048036038101906101349190611090565b610414565b005b34801561014757600080fd5b50610162600480360381019061015d9190611090565b6108d8565b60405161016f91906112c8565b60405180910390f35b34801561018457600080fd5b5061019f600480360381019061019a919061141f565b610c33565b005b60025481565b6000600254905090565b60008054905090565b6003600083815260200190815260200160002060060160009054906101000a900460ff161561021e576040517f08c379a000000000000000000000000000000000000000000000000000000000815260040161021590611567565b60405180910390fd5b6000603c8261022d91906115b6565b9050600082600360008681526020019081526020016000206005015461025391906115b6565b905060006002548261026591906115f8565b9050600160009054906101000a900473ffffffffffffffffffffffffffffffffffffffff1673ffffffffffffffffffffffffffffffffffffffff166323b872dd3330846040518463ffffffff1660e01b81526004016102c69392919061163b565b6020604051808303816000875af11580156102e5573d6000803e3d6000fd5b505050506040513d601f19601f82011682018060405250810190610309919061169e565b610348576040517f08c379a000000000000000000000000000000000000000000000000000000000815260040161033f90611717565b60405180910390fd5b824261035491906115f8565b6003600087815260200190815260200160002060070181905550336003600087815260200190815260200160002060060160016101000a81548173ffffffffffffffffffffffffffffffffffffffff021916908373ffffffffffffffffffffffffffffffffffffffff16021790555060016003600087815260200190815260200160002060060160006101000a81548160ff0219169083151502179055508160036000878152602001908152602001600020600801819055505050505050565b6003600082815260200190815260200160002060060160009054906101000a900460ff16610477576040517f08c379a000000000000000000000000000000000000000000000000000000000815260040161046e90611783565b60405180910390fd5b600360008281526020019081526020016000206007015442116104cf576040517f08c379a00000000000000000000000000000000000000000000000000000000081526004016104c6906117ef565b60405180910390fd5b3373ffffffffffffffffffffffffffffffffffffffff166003600083815260200190815260200160002060000160009054906101000a900473ffffffffffffffffffffffffffffffffffffffff1673ffffffffffffffffffffffffffffffffffffffff1614806105a057503373ffffffffffffffffffffffffffffffffffffffff166003600083815260200190815260200160002060060160019054906101000a900473ffffffffffffffffffffffffffffffffffffffff1673ffffffffffffffffffffffffffffffffffffffff16145b6105df576040517f08c379a00000000000000000000000000000000000000000000000000000000081526004016105d69061185b565b60405180910390fd5b60006002546003600084815260200190815260200160002060080154610605919061187b565b9050600160009054906101000a900473ffffffffffffffffffffffffffffffffffffffff1673ffffffffffffffffffffffffffffffffffffffff1663a9059cbb6003600085815260200190815260200160002060000160009054906101000a900473ffffffffffffffffffffffffffffffffffffffff16836040518363ffffffff1660e01b815260040161069a92919061190e565b6020604051808303816000875af11580156106b9573d6000803e3d6000fd5b505050506040513d601f19601f820116820180604052508101906106dd919061169e565b61071c576040517f08c379a000000000000000000000000000000000000000000000000000000000815260040161071390611983565b60405180910390fd5b600160009054906101000a900473ffffffffffffffffffffffffffffffffffffffff1673ffffffffffffffffffffffffffffffffffffffff1663a9059cbb6003600085815260200190815260200160002060060160019054906101000a900473ffffffffffffffffffffffffffffffffffffffff166002546040518363ffffffff1660e01b81526004016107b19291906119a3565b6020604051808303816000875af11580156107d0573d6000803e3d6000fd5b505050506040513d601f19601f820116820180604052508101906107f4919061169e565b610833576040517f08c379a000000000000000000000000000000000000000000000000000000000815260040161082a90611a3e565b60405180910390fd5b60006003600084815260200190815260200160002060060160016101000a81548173ffffffffffffffffffffffffffffffffffffffff021916908373ffffffffffffffffffffffffffffffffffffffff1602179055506000600360008481526020019081526020016000206008018190555060006003600084815260200190815260200160002060060160006101000a81548160ff0219169083151502179055505050565b6108e0610f5b565b60036000838152602001908152602001600020604051806101400160405290816000820160009054906101000a900473ffffffffffffffffffffffffffffffffffffffff1673ffffffffffffffffffffffffffffffffffffffff1673ffffffffffffffffffffffffffffffffffffffff16815260200160018201805461096590611a8d565b80601f016020809104026020016040519081016040528092919081815260200182805461099190611a8d565b80156109de5780601f106109b3576101008083540402835291602001916109de565b820191906000526020600020905b8154815290600101906020018083116109c157829003601f168201915b505050505081526020016002820180546109f790611a8d565b80601f0160208091040260200160405190810160405280929190818152602001828054610a2390611a8d565b8015610a705780601f10610a4557610100808354040283529160200191610a70565b820191906000526020600020905b815481529060010190602001808311610a5357829003601f168201915b50505050508152602001600382018054610a8990611a8d565b80601f0160208091040260200160405190810160405280929190818152602001828054610ab590611a8d565b8015610b025780601f10610ad757610100808354040283529160200191610b02565b820191906000526020600020905b815481529060010190602001808311610ae557829003601f168201915b50505050508152602001600482018054610b1b90611a8d565b80601f0160208091040260200160405190810160405280929190818152602001828054610b4790611a8d565b8015610b945780601f10610b6957610100808354040283529160200191610b94565b820191906000526020600020905b815481529060010190602001808311610b7757829003601f168201915b50505050508152602001600582015481526020016006820160009054906101000a900460ff161515151581526020016006820160019054906101000a900473ffffffffffffffffffffffffffffffffffffffff1673ffffffffffffffffffffffffffffffffffffffff1673ffffffffffffffffffffffffffffffffffffffff168152602001600782015481526020016008820154815250509050919050565b6000855111610c77576040517f08c379a0000000000000000000000000000000000000000000000000000000008152600401610c6e90611b0a565b60405180910390fd5b6000845111610cbb576040517f08c379a0000000000000000000000000000000000000000000000000000000008152600401610cb290611b0a565b60405180910390fd5b6000835111610cff576040517f08c379a0000000000000000000000000000000000000000000000000000000008152600401610cf690611b0a565b60405180910390fd5b6000825111610d43576040517f08c379a0000000000000000000000000000000000000000000000000000000008152600401610d3a90611b0a565b60405180910390fd5b60008111610d86576040517f08c379a0000000000000000000000000000000000000000000000000000000008152600401610d7d90611b76565b60405180910390fd5b60006040518061014001604052803373ffffffffffffffffffffffffffffffffffffffff168152602001878152602001868152602001858152602001848152602001838152602001600015158152602001600073ffffffffffffffffffffffffffffffffffffffff1681526020018281526020016000815250600360008054815260200190815260200160002060008201518160000160006101000a81548173ffffffffffffffffffffffffffffffffffffffff021916908373ffffffffffffffffffffffffffffffffffffffff1602179055506020820151816001019081610e6f9190611d38565b506040820151816002019081610e859190611d38565b506060820151816003019081610e9b9190611d38565b506080820151816004019081610eb19190611d38565b5060a0820151816005015560c08201518160060160006101000a81548160ff02191690831515021790555060e08201518160060160016101000a81548173ffffffffffffffffffffffffffffffffffffffff021916908373ffffffffffffffffffffffffffffffffffffffff16021790555061010082015181600701556101208201518160080155905050600080815480929190610f4e90611e0a565b9190505550505050505050565b604051806101400160405280600073ffffffffffffffffffffffffffffffffffffffff1681526020016060815260200160608152602001606081526020016060815260200160008152602001600015158152602001600073ffffffffffffffffffffffffffffffffffffffff16815260200160008152602001600081525090565b6000819050919050565b610fef81610fdc565b82525050565b600060208201905061100a6000830184610fe6565b92915050565b6000604051905090565b600080fd5b600080fd5b61102d81610fdc565b811461103857600080fd5b50565b60008135905061104a81611024565b92915050565b600080604083850312156110675761106661101a565b5b60006110758582860161103b565b92505060206110868582860161103b565b9150509250929050565b6000602082840312156110a6576110a561101a565b5b60006110b48482850161103b565b91505092915050565b600073ffffffffffffffffffffffffffffffffffffffff82169050919050565b60006110e8826110bd565b9050919050565b6110f8816110dd565b82525050565b600081519050919050565b600082825260208201905092915050565b60005b8381101561113857808201518184015260208101905061111d565b60008484015250505050565b6000601f19601f8301169050919050565b6000611160826110fe565b61116a8185611109565b935061117a81856020860161111a565b61118381611144565b840191505092915050565b61119781610fdc565b82525050565b60008115159050919050565b6111b28161119d565b82525050565b60006111c3826110bd565b9050919050565b6111d3816111b8565b82525050565b6000610140830160008301516111f260008601826110ef565b506020830151848203602086015261120a8282611155565b915050604083015184820360408601526112248282611155565b9150506060830151848203606086015261123e8282611155565b915050608083015184820360808601526112588282611155565b91505060a083015161126d60a086018261118e565b5060c083015161128060c08601826111a9565b5060e083015161129360e08601826111ca565b506101008301516112a861010086018261118e565b506101208301516112bd61012086018261118e565b508091505092915050565b600060208201905081810360008301526112e281846111d9565b905092915050565b600080fd5b600080fd5b7f4e487b7100000000000000000000000000000000000000000000000000000000600052604160045260246000fd5b61132c82611144565b810181811067ffffffffffffffff8211171561134b5761134a6112f4565b5b80604052505050565b600061135e611010565b905061136a8282611323565b919050565b600067ffffffffffffffff82111561138a576113896112f4565b5b61139382611144565b9050602081019050919050565b82818337600083830152505050565b60006113c26113bd8461136f565b611354565b9050828152602081018484840111156113de576113dd6112ef565b5b6113e98482856113a0565b509392505050565b600082601f830112611406576114056112ea565b5b81356114168482602086016113af565b91505092915050565b600080600080600060a0868803121561143b5761143a61101a565b5b600086013567ffffffffffffffff8111156114595761145861101f565b5b611465888289016113f1565b955050602086013567ffffffffffffffff8111156114865761148561101f565b5b611492888289016113f1565b945050604086013567ffffffffffffffff8111156114b3576114b261101f565b5b6114bf888289016113f1565b935050606086013567ffffffffffffffff8111156114e0576114df61101f565b5b6114ec888289016113f1565b92505060806114fd8882890161103b565b9150509295509295909350565b600082825260208201905092915050565b7f526f6f6d20697320726573657276656400000000000000000000000000000000600082015250565b600061155160108361150a565b915061155c8261151b565b602082019050919050565b6000602082019050818103600083015261158081611544565b9050919050565b7f4e487b7100000000000000000000000000000000000000000000000000000000600052601160045260246000fd5b60006115c182610fdc565b91506115cc83610fdc565b92508282026115da81610fdc565b915082820484148315176115f1576115f0611587565b5b5092915050565b600061160382610fdc565b915061160e83610fdc565b925082820190508082111561162657611625611587565b5b92915050565b611635816111b8565b82525050565b6000606082019050611650600083018661162c565b61165d602083018561162c565b61166a6040830184610fe6565b949350505050565b61167b8161119d565b811461168657600080fd5b50565b60008151905061169881611672565b92915050565b6000602082840312156116b4576116b361101a565b5b60006116c284828501611689565b91505092915050565b7f546f6b656e207472616e73666572206661696c65642e00000000000000000000600082015250565b600061170160168361150a565b915061170c826116cb565b602082019050919050565b60006020820190508181036000830152611730816116f4565b9050919050565b7f526f6f6d206e6f74207265736572766564000000000000000000000000000000600082015250565b600061176d60118361150a565b915061177882611737565b602082019050919050565b6000602082019050818103600083015261179c81611760565b9050919050565b7f5265736572766174696f6e206e6f742079657420656e64656400000000000000600082015250565b60006117d960198361150a565b91506117e4826117a3565b602082019050919050565b60006020820190508181036000830152611808816117cc565b9050919050565b7f4e6f206163636573730000000000000000000000000000000000000000000000600082015250565b600061184560098361150a565b91506118508261180f565b602082019050919050565b6000602082019050818103600083015261187481611838565b9050919050565b600061188682610fdc565b915061189183610fdc565b92508282039050818111156118a9576118a8611587565b5b92915050565b6000819050919050565b60006118d46118cf6118ca846110bd565b6118af565b6110bd565b9050919050565b60006118e6826118b9565b9050919050565b60006118f8826118db565b9050919050565b611908816118ed565b82525050565b600060408201905061192360008301856118ff565b6119306020830184610fe6565b9392505050565b7f5472616e7366657220746f206f776e6572206661696c65642e00000000000000600082015250565b600061196d60198361150a565b915061197882611937565b602082019050919050565b6000602082019050818103600083015261199c81611960565b9050919050565b60006040820190506119b8600083018561162c565b6119c56020830184610fe6565b9392505050565b7f5472616e73666572206f66207265736572766174696f6e2066656520746f207560008201527f736572206661696c65642e000000000000000000000000000000000000000000602082015250565b6000611a28602b8361150a565b9150611a33826119cc565b604082019050919050565b60006020820190508181036000830152611a5781611a1b565b9050919050565b7f4e487b7100000000000000000000000000000000000000000000000000000000600052602260045260246000fd5b60006002820490506001821680611aa557607f821691505b602082108103611ab857611ab7611a5e565b5b50919050565b7f696e70757420646174612063616e6e6f7420626520656d707479000000000000600082015250565b6000611af4601a8361150a565b9150611aff82611abe565b602082019050919050565b60006020820190508181036000830152611b2381611ae7565b9050919050565b7f5072696365206d7573742062652067726561746572207468616e203000000000600082015250565b6000611b60601c8361150a565b9150611b6b82611b2a565b602082019050919050565b60006020820190508181036000830152611b8f81611b53565b9050919050565b60008190508160005260206000209050919050565b60006020601f8301049050919050565b600082821b905092915050565b600060088302611bf87fffffffffffffffffffffffffffffffffffffffffffffffffffffffffffffffff82611bbb565b611c028683611bbb565b95508019841693508086168417925050509392505050565b6000611c35611c30611c2b84610fdc565b6118af565b610fdc565b9050919050565b6000819050919050565b611c4f83611c1a565b611c63611c5b82611c3c565b848454611bc8565b825550505050565b600090565b611c78611c6b565b611c83818484611c46565b505050565b5b81811015611ca757611c9c600082611c70565b600181019050611c89565b5050565b601f821115611cec57611cbd81611b96565b611cc684611bab565b81016020851015611cd5578190505b611ce9611ce185611bab565b830182611c88565b50505b505050565b600082821c905092915050565b6000611d0f60001984600802611cf1565b1980831691505092915050565b6000611d288383611cfe565b9150826002028217905092915050565b611d41826110fe565b67ffffffffffffffff811115611d5a57611d596112f4565b5b611d648254611a8d565b611d6f828285611cab565b600060209050601f831160018114611da25760008415611d90578287015190505b611d9a8582611d1c565b865550611e02565b601f198416611db086611b96565b60005b82811015611dd857848901518255600182019150602085019450602081019050611db3565b86831015611df55784890151611df1601f891682611cfe565b8355505b6001600288020188555050505b505050505050565b6000611e1582610fdc565b91507fffffffffffffffffffffffffffffffffffffffffffffffffffffffffffffffff8203611e4757611e46611587565b5b60018201905091905056fea2646970667358221220a575c7f82d34cab2d2f711416f96d426dbf5151a8ae6a2dc4a1e0e5bb413218b64736f6c63430008110033",
  "devdoc": {
    "kind": "dev",
    "methods": {},
    "version": 1
  },
  "userdoc": {
    "kind": "user",
    "methods": {},
    "version": 1
  },
  "storageLayout": {
    "storage": [
      {
        "astId": 71,
        "contract": "contracts/Marketplace.sol:Marketplace",
        "label": "roomsLength",
        "offset": 0,
        "slot": "0",
        "type": "t_uint256"
      },
      {
        "astId": 74,
        "contract": "contracts/Marketplace.sol:Marketplace",
        "label": "cEURTokenAddress",
        "offset": 0,
        "slot": "1",
        "type": "t_address"
      },
      {
        "astId": 77,
        "contract": "contracts/Marketplace.sol:Marketplace",
        "label": "reservationFee",
        "offset": 0,
        "slot": "2",
        "type": "t_uint256"
      },
      {
        "astId": 103,
        "contract": "contracts/Marketplace.sol:Marketplace",
        "label": "rooms",
        "offset": 0,
        "slot": "3",
        "type": "t_mapping(t_uint256,t_struct(Room)98_storage)"
      }
    ],
    "types": {
      "t_address": {
        "encoding": "inplace",
        "label": "address",
        "numberOfBytes": "20"
      },
      "t_address_payable": {
        "encoding": "inplace",
        "label": "address payable",
        "numberOfBytes": "20"
      },
      "t_bool": {
        "encoding": "inplace",
        "label": "bool",
        "numberOfBytes": "1"
      },
      "t_mapping(t_uint256,t_struct(Room)98_storage)": {
        "encoding": "mapping",
        "key": "t_uint256",
        "label": "mapping(uint256 => struct Marketplace.Room)",
        "numberOfBytes": "32",
        "value": "t_struct(Room)98_storage"
      },
      "t_string_storage": {
        "encoding": "bytes",
        "label": "string",
        "numberOfBytes": "32"
      },
      "t_struct(Room)98_storage": {
        "encoding": "inplace",
        "label": "struct Marketplace.Room",
        "members": [
          {
            "astId": 79,
            "contract": "contracts/Marketplace.sol:Marketplace",
            "label": "owner",
            "offset": 0,
            "slot": "0",
            "type": "t_address_payable"
          },
          {
            "astId": 81,
            "contract": "contracts/Marketplace.sol:Marketplace",
            "label": "name",
            "offset": 0,
            "slot": "1",
            "type": "t_string_storage"
          },
          {
            "astId": 83,
            "contract": "contracts/Marketplace.sol:Marketplace",
            "label": "image",
            "offset": 0,
            "slot": "2",
            "type": "t_string_storage"
          },
          {
            "astId": 85,
            "contract": "contracts/Marketplace.sol:Marketplace",
            "label": "description",
            "offset": 0,
            "slot": "3",
            "type": "t_string_storage"
          },
          {
            "astId": 87,
            "contract": "contracts/Marketplace.sol:Marketplace",
            "label": "location",
            "offset": 0,
            "slot": "4",
            "type": "t_string_storage"
          },
          {
            "astId": 89,
            "contract": "contracts/Marketplace.sol:Marketplace",
            "label": "pricePerNight",
            "offset": 0,
            "slot": "5",
            "type": "t_uint256"
          },
          {
            "astId": 91,
            "contract": "contracts/Marketplace.sol:Marketplace",
            "label": "isReserved",
            "offset": 0,
            "slot": "6",
            "type": "t_bool"
          },
          {
            "astId": 93,
            "contract": "contracts/Marketplace.sol:Marketplace",
            "label": "currentReservedTo",
            "offset": 1,
            "slot": "6",
            "type": "t_address"
          },
          {
            "astId": 95,
            "contract": "contracts/Marketplace.sol:Marketplace",
            "label": "currentReservationEnds",
            "offset": 0,
            "slot": "7",
            "type": "t_uint256"
          },
          {
            "astId": 97,
            "contract": "contracts/Marketplace.sol:Marketplace",
            "label": "currentBookingFee",
            "offset": 0,
            "slot": "8",
            "type": "t_uint256"
          }
        ],
        "numberOfBytes": "288"
      },
      "t_uint256": {
        "encoding": "inplace",
        "label": "uint256",
        "numberOfBytes": "32"
      }
    }
  }
}