{
  "address": "0x5ea1BB2149129E599Ae6a7C1849Fe044135b04d2",
  "abi": [
    {
      "inputs": [
        {
          "internalType": "uint256",
          "name": "_index",
          "type": "uint256"
        }
      ],
      "name": "endReservation",
      "outputs": [],
      "stateMutability": "payable",
      "type": "function"
    },
    {
      "inputs": [],
      "name": "getReservationFee",
      "outputs": [
        {
          "internalType": "uint256",
          "name": "",
          "type": "uint256"
        }
      ],
      "stateMutability": "view",
      "type": "function"
    },
    {
      "inputs": [],
      "name": "getRoomsLength",
      "outputs": [
        {
          "internalType": "uint256",
          "name": "",
          "type": "uint256"
        }
      ],
      "stateMutability": "view",
      "type": "function"
    },
    {
      "inputs": [
        {
          "internalType": "uint256",
          "name": "_index",
          "type": "uint256"
        },
        {
          "internalType": "uint256",
          "name": "_noOfNights",
          "type": "uint256"
        }
      ],
      "name": "makeReservation",
      "outputs": [],
      "stateMutability": "payable",
      "type": "function"
    },
    {
      "inputs": [
        {
          "internalType": "uint256",
          "name": "_index",
          "type": "uint256"
        }
      ],
      "name": "readRoom",
      "outputs": [
        {
          "components": [
            {
              "internalType": "address payable",
              "name": "owner",
              "type": "address"
            },
            {
              "internalType": "string",
              "name": "name",
              "type": "string"
            },
            {
              "internalType": "string",
              "name": "image",
              "type": "string"
            },
            {
              "internalType": "string",
              "name": "description",
              "type": "string"
            },
            {
              "internalType": "string",
              "name": "location",
              "type": "string"
            },
            {
              "internalType": "uint256",
              "name": "pricePerNight",
              "type": "uint256"
            },
            {
              "internalType": "bool",
              "name": "isReserved",
              "type": "bool"
            },
            {
              "internalType": "address",
              "name": "currentReservedTo",
              "type": "address"
            },
            {
              "internalType": "uint256",
              "name": "currentReservationEnds",
              "type": "uint256"
            },
            {
              "internalType": "uint256",
              "name": "currentBookingFee",
              "type": "uint256"
            }
          ],
          "internalType": "struct Marketplace.Room",
          "name": "",
          "type": "tuple"
        }
      ],
      "stateMutability": "view",
      "type": "function"
    },
    {
      "inputs": [
        {
          "internalType": "string",
          "name": "_name",
          "type": "string"
        },
        {
          "internalType": "string",
          "name": "_image",
          "type": "string"
        },
        {
          "internalType": "string",
          "name": "_description",
          "type": "string"
        },
        {
          "internalType": "string",
          "name": "_location",
          "type": "string"
        },
        {
          "internalType": "uint256",
          "name": "_pricePerNight",
          "type": "uint256"
        }
      ],
      "name": "writeroom",
      "outputs": [],
      "stateMutability": "nonpayable",
      "type": "function"
    }
  ],
  "transactionHash": "0xe1b0d06006ab6fbc2d74e5186896597737834508be5435e357453b2d0cb808df",
  "args": [],
  "numDeployments": 8,
  "solcInputHash": "d10e6a7ae004764e6b3b53850a7aff5b",
  "bytecode": "0x6080604052600080557310c892a6ec43a53e45d0b916b4b7d383b1b78c0f600160006101000a81548173ffffffffffffffffffffffffffffffffffffffff021916908373ffffffffffffffffffffffffffffffffffffffff160217905550670de0b6b3a764000060025534801561007557600080fd5b50611c19806100856000396000f3fe6080604052600436106100555760003560e01c806371ed71881461005a578063ad8a51e714610085578063b37a87eb146100b0578063cdb7162a146100cc578063d8b7b358146100e8578063e299fabc14610125575b600080fd5b34801561006657600080fd5b5061006f61014e565b60405161007c9190610e84565b60405180910390f35b34801561009157600080fd5b5061009a610158565b6040516100a79190610e84565b60405180910390f35b6100ca60048036038101906100c59190610edf565b610161565b005b6100e660048036038101906100e19190610f1f565b6103b5565b005b3480156100f457600080fd5b5061010f600480360381019061010a9190610f1f565b610878565b60405161011c9190611157565b60405180910390f35b34801561013157600080fd5b5061014c600480360381019061014791906112ae565b610bd3565b005b6000600254905090565b60008054905090565b6003600083815260200190815260200160002060060160009054906101000a900460ff16156101c5576040517f08c379a00000000000000000000000000000000000000000000000000000000081526004016101bc906113f6565b60405180910390fd5b6000603c826101d49190611445565b905060006002548360036000878152602001908152602001600020600501546101fd9190611445565b6102079190611487565b9050600160009054906101000a900473ffffffffffffffffffffffffffffffffffffffff1673ffffffffffffffffffffffffffffffffffffffff166323b872dd3330846040518463ffffffff1660e01b8152600401610268939291906114ca565b6020604051808303816000875af1158015610287573d6000803e3d6000fd5b505050506040513d601f19601f820116820180604052508101906102ab919061152d565b6102ea576040517f08c379a00000000000000000000000000000000000000000000000000000000081526004016102e1906115a6565b60405180910390fd5b81426102f69190611487565b6003600086815260200190815260200160002060070181905550336003600086815260200190815260200160002060060160016101000a81548173ffffffffffffffffffffffffffffffffffffffff021916908373ffffffffffffffffffffffffffffffffffffffff16021790555060016003600086815260200190815260200160002060060160006101000a81548160ff02191690831515021790555080600360008681526020019081526020016000206008018190555050505050565b6003600082815260200190815260200160002060060160009054906101000a900460ff16610418576040517f08c379a000000000000000000000000000000000000000000000000000000000815260040161040f90611612565b60405180910390fd5b60036000828152602001908152602001600020600701544211610470576040517f08c379a00000000000000000000000000000000000000000000000000000000081526004016104679061167e565b60405180910390fd5b3373ffffffffffffffffffffffffffffffffffffffff166003600083815260200190815260200160002060060160019054906101000a900473ffffffffffffffffffffffffffffffffffffffff1673ffffffffffffffffffffffffffffffffffffffff16148061054157503373ffffffffffffffffffffffffffffffffffffffff166003600083815260200190815260200160002060000160009054906101000a900473ffffffffffffffffffffffffffffffffffffffff1673ffffffffffffffffffffffffffffffffffffffff16145b610580576040517f08c379a0000000000000000000000000000000000000000000000000000000008152600401610577906116ea565b60405180910390fd5b600060025460036000848152602001908152602001600020600801546105a6919061170a565b9050600160009054906101000a900473ffffffffffffffffffffffffffffffffffffffff1673ffffffffffffffffffffffffffffffffffffffff1663a9059cbb6003600085815260200190815260200160002060000160009054906101000a900473ffffffffffffffffffffffffffffffffffffffff16836040518363ffffffff1660e01b815260040161063b92919061179d565b6020604051808303816000875af115801561065a573d6000803e3d6000fd5b505050506040513d601f19601f8201168201806040525081019061067e919061152d565b6106bd576040517f08c379a00000000000000000000000000000000000000000000000000000000081526004016106b490611812565b60405180910390fd5b600160009054906101000a900473ffffffffffffffffffffffffffffffffffffffff1673ffffffffffffffffffffffffffffffffffffffff1663a9059cbb6003600085815260200190815260200160002060060160019054906101000a900473ffffffffffffffffffffffffffffffffffffffff166002546040518363ffffffff1660e01b8152600401610752929190611832565b6020604051808303816000875af1158015610771573d6000803e3d6000fd5b505050506040513d601f19601f82011682018060405250810190610795919061152d565b6107d4576040517f08c379a00000000000000000000000000000000000000000000000000000000081526004016107cb90611812565b60405180910390fd5b306003600084815260200190815260200160002060060160016101000a81548173ffffffffffffffffffffffffffffffffffffffff021916908373ffffffffffffffffffffffffffffffffffffffff1602179055506000600360008481526020019081526020016000206008018190555060006003600084815260200190815260200160002060060160006101000a81548160ff0219169083151502179055505050565b610880610dea565b60036000838152602001908152602001600020604051806101400160405290816000820160009054906101000a900473ffffffffffffffffffffffffffffffffffffffff1673ffffffffffffffffffffffffffffffffffffffff1673ffffffffffffffffffffffffffffffffffffffff1681526020016001820180546109059061188a565b80601f01602080910402602001604051908101604052809291908181526020018280546109319061188a565b801561097e5780601f106109535761010080835404028352916020019161097e565b820191906000526020600020905b81548152906001019060200180831161096157829003601f168201915b505050505081526020016002820180546109979061188a565b80601f01602080910402602001604051908101604052809291908181526020018280546109c39061188a565b8015610a105780601f106109e557610100808354040283529160200191610a10565b820191906000526020600020905b8154815290600101906020018083116109f357829003601f168201915b50505050508152602001600382018054610a299061188a565b80601f0160208091040260200160405190810160405280929190818152602001828054610a559061188a565b8015610aa25780601f10610a7757610100808354040283529160200191610aa2565b820191906000526020600020905b815481529060010190602001808311610a8557829003601f168201915b50505050508152602001600482018054610abb9061188a565b80601f0160208091040260200160405190810160405280929190818152602001828054610ae79061188a565b8015610b345780601f10610b0957610100808354040283529160200191610b34565b820191906000526020600020905b815481529060010190602001808311610b1757829003601f168201915b50505050508152602001600582015481526020016006820160009054906101000a900460ff161515151581526020016006820160019054906101000a900473ffffffffffffffffffffffffffffffffffffffff1673ffffffffffffffffffffffffffffffffffffffff1673ffffffffffffffffffffffffffffffffffffffff168152602001600782015481526020016008820154815250509050919050565b60008111610c16576040517f08c379a0000000000000000000000000000000000000000000000000000000008152600401610c0d90611907565b60405180910390fd5b60006040518061014001604052803373ffffffffffffffffffffffffffffffffffffffff1681526020018781526020018681526020018581526020018481526020018381526020016000151581526020013073ffffffffffffffffffffffffffffffffffffffff1681526020018281526020016000815250600360008054815260200190815260200160002060008201518160000160006101000a81548173ffffffffffffffffffffffffffffffffffffffff021916908373ffffffffffffffffffffffffffffffffffffffff1602179055506020820151816001019081610cfe9190611ac9565b506040820151816002019081610d149190611ac9565b506060820151816003019081610d2a9190611ac9565b506080820151816004019081610d409190611ac9565b5060a0820151816005015560c08201518160060160006101000a81548160ff02191690831515021790555060e08201518160060160016101000a81548173ffffffffffffffffffffffffffffffffffffffff021916908373ffffffffffffffffffffffffffffffffffffffff16021790555061010082015181600701556101208201518160080155905050600080815480929190610ddd90611b9b565b9190505550505050505050565b604051806101400160405280600073ffffffffffffffffffffffffffffffffffffffff1681526020016060815260200160608152602001606081526020016060815260200160008152602001600015158152602001600073ffffffffffffffffffffffffffffffffffffffff16815260200160008152602001600081525090565b6000819050919050565b610e7e81610e6b565b82525050565b6000602082019050610e996000830184610e75565b92915050565b6000604051905090565b600080fd5b600080fd5b610ebc81610e6b565b8114610ec757600080fd5b50565b600081359050610ed981610eb3565b92915050565b60008060408385031215610ef657610ef5610ea9565b5b6000610f0485828601610eca565b9250506020610f1585828601610eca565b9150509250929050565b600060208284031215610f3557610f34610ea9565b5b6000610f4384828501610eca565b91505092915050565b600073ffffffffffffffffffffffffffffffffffffffff82169050919050565b6000610f7782610f4c565b9050919050565b610f8781610f6c565b82525050565b600081519050919050565b600082825260208201905092915050565b60005b83811015610fc7578082015181840152602081019050610fac565b60008484015250505050565b6000601f19601f8301169050919050565b6000610fef82610f8d565b610ff98185610f98565b9350611009818560208601610fa9565b61101281610fd3565b840191505092915050565b61102681610e6b565b82525050565b60008115159050919050565b6110418161102c565b82525050565b600061105282610f4c565b9050919050565b61106281611047565b82525050565b6000610140830160008301516110816000860182610f7e565b50602083015184820360208601526110998282610fe4565b915050604083015184820360408601526110b38282610fe4565b915050606083015184820360608601526110cd8282610fe4565b915050608083015184820360808601526110e78282610fe4565b91505060a08301516110fc60a086018261101d565b5060c083015161110f60c0860182611038565b5060e083015161112260e0860182611059565b5061010083015161113761010086018261101d565b5061012083015161114c61012086018261101d565b508091505092915050565b600060208201905081810360008301526111718184611068565b905092915050565b600080fd5b600080fd5b7f4e487b7100000000000000000000000000000000000000000000000000000000600052604160045260246000fd5b6111bb82610fd3565b810181811067ffffffffffffffff821117156111da576111d9611183565b5b80604052505050565b60006111ed610e9f565b90506111f982826111b2565b919050565b600067ffffffffffffffff82111561121957611218611183565b5b61122282610fd3565b9050602081019050919050565b82818337600083830152505050565b600061125161124c846111fe565b6111e3565b90508281526020810184848401111561126d5761126c61117e565b5b61127884828561122f565b509392505050565b600082601f83011261129557611294611179565b5b81356112a584826020860161123e565b91505092915050565b600080600080600060a086880312156112ca576112c9610ea9565b5b600086013567ffffffffffffffff8111156112e8576112e7610eae565b5b6112f488828901611280565b955050602086013567ffffffffffffffff81111561131557611314610eae565b5b61132188828901611280565b945050604086013567ffffffffffffffff81111561134257611341610eae565b5b61134e88828901611280565b935050606086013567ffffffffffffffff81111561136f5761136e610eae565b5b61137b88828901611280565b925050608061138c88828901610eca565b9150509295509295909350565b600082825260208201905092915050565b7f726f6f6d20697320726573657276656400000000000000000000000000000000600082015250565b60006113e0601083611399565b91506113eb826113aa565b602082019050919050565b6000602082019050818103600083015261140f816113d3565b9050919050565b7f4e487b7100000000000000000000000000000000000000000000000000000000600052601160045260246000fd5b600061145082610e6b565b915061145b83610e6b565b925082820261146981610e6b565b915082820484148315176114805761147f611416565b5b5092915050565b600061149282610e6b565b915061149d83610e6b565b92508282019050808211156114b5576114b4611416565b5b92915050565b6114c481611047565b82525050565b60006060820190506114df60008301866114bb565b6114ec60208301856114bb565b6114f96040830184610e75565b949350505050565b61150a8161102c565b811461151557600080fd5b50565b60008151905061152781611501565b92915050565b60006020828403121561154357611542610ea9565b5b600061155184828501611518565b91505092915050565b7f5472616e73666572206661696c65642e00000000000000000000000000000000600082015250565b6000611590601083611399565b915061159b8261155a565b602082019050919050565b600060208201905081810360008301526115bf81611583565b9050919050565b7f726f6f6d206e6f74207265736572766564000000000000000000000000000000600082015250565b60006115fc601183611399565b9150611607826115c6565b602082019050919050565b6000602082019050818103600083015261162b816115ef565b9050919050565b7f7265736572766174696f6e206e6f742079657420656e64656400000000000000600082015250565b6000611668601983611399565b915061167382611632565b602082019050919050565b600060208201905081810360008301526116978161165b565b9050919050565b7f6e6f206163636573730000000000000000000000000000000000000000000000600082015250565b60006116d4600983611399565b91506116df8261169e565b602082019050919050565b60006020820190508181036000830152611703816116c7565b9050919050565b600061171582610e6b565b915061172083610e6b565b925082820390508181111561173857611737611416565b5b92915050565b6000819050919050565b600061176361175e61175984610f4c565b61173e565b610f4c565b9050919050565b600061177582611748565b9050919050565b60006117878261176a565b9050919050565b6117978161177c565b82525050565b60006040820190506117b2600083018561178e565b6117bf6020830184610e75565b9392505050565b7f5472616e73666572206661696c65640000000000000000000000000000000000600082015250565b60006117fc600f83611399565b9150611807826117c6565b602082019050919050565b6000602082019050818103600083015261182b816117ef565b9050919050565b600060408201905061184760008301856114bb565b6118546020830184610e75565b9392505050565b7f4e487b7100000000000000000000000000000000000000000000000000000000600052602260045260246000fd5b600060028204905060018216806118a257607f821691505b6020821081036118b5576118b461185b565b5b50919050565b7f5072696365206d7573742062652067726561746572207468616e203000000000600082015250565b60006118f1601c83611399565b91506118fc826118bb565b602082019050919050565b60006020820190508181036000830152611920816118e4565b9050919050565b60008190508160005260206000209050919050565b60006020601f8301049050919050565b600082821b905092915050565b6000600883026119897fffffffffffffffffffffffffffffffffffffffffffffffffffffffffffffffff8261194c565b611993868361194c565b95508019841693508086168417925050509392505050565b60006119c66119c16119bc84610e6b565b61173e565b610e6b565b9050919050565b6000819050919050565b6119e0836119ab565b6119f46119ec826119cd565b848454611959565b825550505050565b600090565b611a096119fc565b611a148184846119d7565b505050565b5b81811015611a3857611a2d600082611a01565b600181019050611a1a565b5050565b601f821115611a7d57611a4e81611927565b611a578461193c565b81016020851015611a66578190505b611a7a611a728561193c565b830182611a19565b50505b505050565b600082821c905092915050565b6000611aa060001984600802611a82565b1980831691505092915050565b6000611ab98383611a8f565b9150826002028217905092915050565b611ad282610f8d565b67ffffffffffffffff811115611aeb57611aea611183565b5b611af5825461188a565b611b00828285611a3c565b600060209050601f831160018114611b335760008415611b21578287015190505b611b2b8582611aad565b865550611b93565b601f198416611b4186611927565b60005b82811015611b6957848901518255600182019150602085019450602081019050611b44565b86831015611b865784890151611b82601f891682611a8f565b8355505b6001600288020188555050505b505050505050565b6000611ba682610e6b565b91507fffffffffffffffffffffffffffffffffffffffffffffffffffffffffffffffff8203611bd857611bd7611416565b5b60018201905091905056fea2646970667358221220da356cf4f62e525bc6366c4c41624a47efbee24bb3d38be05d4386c55ff6196264736f6c63430008110033",
  "devdoc": {
    "kind": "dev",
    "methods": {},
    "version": 1
  },
  "userdoc": {
    "kind": "user",
    "methods": {},
    "version": 1
  },
  "storageLayout": {
    "storage": [
      {
        "astId": 71,
        "contract": "contracts/Marketplace.sol:Marketplace",
        "label": "roomsLength",
        "offset": 0,
        "slot": "0",
        "type": "t_uint256"
      },
      {
        "astId": 74,
        "contract": "contracts/Marketplace.sol:Marketplace",
        "label": "cEURTokenAddress",
        "offset": 0,
        "slot": "1",
        "type": "t_address"
      },
      {
        "astId": 77,
        "contract": "contracts/Marketplace.sol:Marketplace",
        "label": "reservationFee",
        "offset": 0,
        "slot": "2",
        "type": "t_uint256"
      },
      {
        "astId": 103,
        "contract": "contracts/Marketplace.sol:Marketplace",
        "label": "rooms",
        "offset": 0,
        "slot": "3",
        "type": "t_mapping(t_uint256,t_struct(Room)98_storage)"
      }
    ],
    "types": {
      "t_address": {
        "encoding": "inplace",
        "label": "address",
        "numberOfBytes": "20"
      },
      "t_address_payable": {
        "encoding": "inplace",
        "label": "address payable",
        "numberOfBytes": "20"
      },
      "t_bool": {
        "encoding": "inplace",
        "label": "bool",
        "numberOfBytes": "1"
      },
      "t_mapping(t_uint256,t_struct(Room)98_storage)": {
        "encoding": "mapping",
        "key": "t_uint256",
        "label": "mapping(uint256 => struct Marketplace.Room)",
        "numberOfBytes": "32",
        "value": "t_struct(Room)98_storage"
      },
      "t_string_storage": {
        "encoding": "bytes",
        "label": "string",
        "numberOfBytes": "32"
      },
      "t_struct(Room)98_storage": {
        "encoding": "inplace",
        "label": "struct Marketplace.Room",
        "members": [
          {
            "astId": 79,
            "contract": "contracts/Marketplace.sol:Marketplace",
            "label": "owner",
            "offset": 0,
            "slot": "0",
            "type": "t_address_payable"
          },
          {
            "astId": 81,
            "contract": "contracts/Marketplace.sol:Marketplace",
            "label": "name",
            "offset": 0,
            "slot": "1",
            "type": "t_string_storage"
          },
          {
            "astId": 83,
            "contract": "contracts/Marketplace.sol:Marketplace",
            "label": "image",
            "offset": 0,
            "slot": "2",
            "type": "t_string_storage"
          },
          {
            "astId": 85,
            "contract": "contracts/Marketplace.sol:Marketplace",
            "label": "description",
            "offset": 0,
            "slot": "3",
            "type": "t_string_storage"
          },
          {
            "astId": 87,
            "contract": "contracts/Marketplace.sol:Marketplace",
            "label": "location",
            "offset": 0,
            "slot": "4",
            "type": "t_string_storage"
          },
          {
            "astId": 89,
            "contract": "contracts/Marketplace.sol:Marketplace",
            "label": "pricePerNight",
            "offset": 0,
            "slot": "5",
            "type": "t_uint256"
          },
          {
            "astId": 91,
            "contract": "contracts/Marketplace.sol:Marketplace",
            "label": "isReserved",
            "offset": 0,
            "slot": "6",
            "type": "t_bool"
          },
          {
            "astId": 93,
            "contract": "contracts/Marketplace.sol:Marketplace",
            "label": "currentReservedTo",
            "offset": 1,
            "slot": "6",
            "type": "t_address"
          },
          {
            "astId": 95,
            "contract": "contracts/Marketplace.sol:Marketplace",
            "label": "currentReservationEnds",
            "offset": 0,
            "slot": "7",
            "type": "t_uint256"
          },
          {
            "astId": 97,
            "contract": "contracts/Marketplace.sol:Marketplace",
            "label": "currentBookingFee",
            "offset": 0,
            "slot": "8",
            "type": "t_uint256"
          }
        ],
        "numberOfBytes": "288"
      },
      "t_uint256": {
        "encoding": "inplace",
        "label": "uint256",
        "numberOfBytes": "32"
      }
    }
  }
}